{
    "_format": "hh-sol-artifact-1",
    "contractName": "FakeMeebitsClaimer",
    "sourceName": "contracts/FakeMeebitsClaimer.sol",
    "abi": [
        {
            "inputs": [
                {
                    "internalType": "uint256",
                    "name": "_maxTokenId",
                    "type": "uint256"
                },
                {
                    "internalType": "address",
                    "name": "_ERC721address",
                    "type": "address"
                }
            ],
            "stateMutability": "nonpayable",
            "type": "constructor"
        },
        {
            "anonymous": false,
            "inputs": [
                {
                    "indexed": false,
                    "internalType": "address",
                    "name": "_account",
                    "type": "address"
                },
                {
                    "indexed": false,
                    "internalType": "bool",
                    "name": "_value",
                    "type": "bool"
                }
            ],
            "name": "UpdateWhitelist",
            "type": "event"
        },
        {
            "anonymous": false,
            "inputs": [
                {
                    "indexed": false,
                    "internalType": "uint256",
                    "name": "_tokenNumber",
                    "type": "uint256"
                },
                {
                    "indexed": false,
                    "internalType": "address",
                    "name": "_tokenClaimer",
                    "type": "address"
                }
            ],
            "name": "aTokenWasClaimed",
            "type": "event"
        },
        {
            "anonymous": false,
            "inputs": [
                {
                    "indexed": false,
                    "internalType": "address",
                    "name": "_withdrawer",
                    "type": "address"
                },
                {
                    "indexed": false,
                    "internalType": "uint256",
                    "name": "_funds",
                    "type": "uint256"
                }
            ],
            "name": "withdrawFunds",
            "type": "event"
        },
        {
            "anonymous": false,
            "inputs": [
                {
                    "indexed": false,
                    "internalType": "address",
                    "name": "_tipper",
                    "type": "address"
                }
            ],
            "name": "yeeeeeeaaaaaahThxCoeurCoeurCoeur",
            "type": "event"
        },
        {
            "stateMutability": "payable",
            "type": "fallback"
        },
        {
            "inputs": [
                {
                    "internalType": "uint256",
                    "name": "_tokenToClaim",
                    "type": "uint256"
                },
                {
                    "internalType": "bytes",
                    "name": "_signature",
                    "type": "bytes"
                }
            ],
            "name": "claimAToken",
            "outputs": [
                {
                    "internalType": "bool",
                    "name": "",
                    "type": "bool"
                }
            ],
            "stateMutability": "payable",
            "type": "function"
        },
        {
            "inputs": [
                {
                    "internalType": "uint256",
                    "name": "",
                    "type": "uint256"
                }
            ],
            "name": "tokensThatWereClaimed",
            "outputs": [
                {
                    "internalType": "bool",
                    "name": "",
                    "type": "bool"
                }
            ],
            "stateMutability": "view",
            "type": "function"
        },
        {
            "inputs": [
                {
                    "internalType": "address",
                    "name": "_account",
                    "type": "address"
                },
                {
                    "internalType": "bool",
                    "name": "_value",
                    "type": "bool"
                }
            ],
            "name": "updateWhitelist",
            "outputs": [
                {
                    "internalType": "bool",
                    "name": "",
                    "type": "bool"
                }
            ],
            "stateMutability": "nonpayable",
            "type": "function"
        },
        {
            "inputs": [
                {
                    "internalType": "address",
                    "name": "",
                    "type": "address"
                }
            ],
            "name": "whitelist",
            "outputs": [
                {
                    "internalType": "bool",
                    "name": "",
                    "type": "bool"
                }
            ],
            "stateMutability": "view",
            "type": "function"
        },
        {
            "inputs": [],
            "name": "withdrawTips",
            "outputs": [],
            "stateMutability": "nonpayable",
            "type": "function"
        }
    ],
    "bytecode": "0x608060405234801561001057600080fd5b506040516108133803806108138339818101604052604081101561003357600080fd5b508051602091820151336000908152928390526040909220805460ff19166001179055600255600480546001600160a01b039092166001600160a01b031990921691909117905561078a806100896000396000f3fe60806040526004361061004a5760003560e01c80630d392cd91461008e578063255dee64146100dd5780633aaa74b21461018a5780634a80edcb1461019f5780639b19251a146101c9575b341561008c5760038054340190556040805133815290517f98122775feb83292ce43154cc4bc798bff4ba6678820c087b8c80c67cbc636f59181900360200190a15b005b34801561009a57600080fd5b506100c9600480360360408110156100b157600080fd5b506001600160a01b03813516906020013515156101fc565b604080519115158252519081900360200190f35b6100c9600480360360408110156100f357600080fd5b8135919081019060408101602082013564010000000081111561011557600080fd5b82018360208201111561012757600080fd5b8035906020019184600183028401116401000000008311171561014957600080fd5b91908080601f0160208091040260200160405190810160405280939291908181526020018383808284376000920191909152509295506102c2945050505050565b34801561019657600080fd5b5061008c610517565b3480156101ab57600080fd5b506100c9600480360360208110156101c257600080fd5b50356105e4565b3480156101d557600080fd5b506100c9600480360360208110156101ec57600080fd5b50356001600160a01b03166105f9565b3360009081526020819052604081205460ff1661025a576040805162461bcd60e51b81526020600482015260176024820152761058d8dbdd5b9d08139bdd0815da1a5d195b1a5cdd1959604a1b604482015290519081900360640190fd5b6001600160a01b03831660008181526020818152604091829020805460ff191686151590811790915582519384529083015280517f08b2c0469ecd1d7a21d7e1492f0fc75fc7e8e0fa4fdf4275949c90875f5ebdf59281900390910190a15060015b92915050565b60008281526001602052604081205460ff1615610326576040805162461bcd60e51b815260206004820152601c60248201527f436c61696d3a20746f6b656e20616c726561647920636c61696d656400000000604482015290519081900360640190fd5b60025483111561037d576040805162461bcd60e51b815260206004820152601860248201527f436c61696d3a20746f6b656e4964206f7574626f756e64730000000000000000604482015290519081900360640190fd5b600454604080516001600160a01b03909216602080840191909152828201869052815180840383018152606090930190915281519101206103be818461060e565b61040f576040805162461bcd60e51b815260206004820152601d60248201527f436c61696d3a207369676e6572206e6f742077686974656c6973746564000000604482015290519081900360640190fd5b6004805460408051635fe68cc560e11b8152928301879052516001600160a01b0390911691829163bfcd198a9160248082019260009290919082900301818387803b15801561045d57600080fd5b505af1158015610471573d6000803e3d6000fd5b505050600086815260016020818152604092839020805460ff19169092179091558151888152339181019190915281517f4079d6cdd2cbe956002b074ad7fb0ab4a6e5b284448268f20d7e9b0b6e60562a93509081900390910190a1341561050f576040805133815290517f98122775feb83292ce43154cc4bc798bff4ba6678820c087b8c80c67cbc636f59181900360200190a160038054340190555b505092915050565b3360009081526020819052604090205460ff16610575576040805162461bcd60e51b81526020600482015260176024820152761058d8dbdd5b9d08139bdd0815da1a5d195b1a5cdd1959604a1b604482015290519081900360640190fd5b600354604051339180156108fc02916000818181858888f193505050501580156105a3573d6000803e3d6000fd5b5060035460408051338152602081019290925280517fc10753299d70f8b15c8a36ea98ae66c6d383e39fa5dd4e0ffcdea85c2223b2c89281900390910190a1565b60016020526000908152604090205460ff1681565b60006020819052908152604090205460ff1681565b600080600080845160411461062957600093505050506102bc565b50505060208201516040830151606084015160001a601b81101561064b57601b015b8060ff16601b1415801561066357508060ff16601c14155b1561067457600093505050506102bc565b60008060018860405160200180807f19457468657265756d205369676e6564204d6573736167653a0a333200000000815250601c018281526020019150506040516020818303038152906040528051906020012084878760405160008152602001604052604051808581526020018460ff1660ff1681526020018381526020018281526020019450505050506020604051602081039080840390855afa158015610722573d6000803e3d6000fd5b505060408051601f1901516001600160a01b03168352602083019390935250016000205460ff1693506102bc9250505056fea264697066735822122025c444c463c773a0873b9c2b01e42abb37f9d37dafd62c357c217f4fcbc1d73864736f6c63430006020033",
    "linkReferences": {},
    "deployedLinkReferences": {}
}