{
    "_format": "hh-sol-artifact-1",
    "contractName": "FakeBAYC",
    "sourceName": "contracts/FakeBAYC.sol",
    "abi": [
        {
            "inputs": [],
            "stateMutability": "nonpayable",
            "type": "constructor"
        },
        {
            "anonymous": false,
            "inputs": [
                {
                    "indexed": true,
                    "internalType": "address",
                    "name": "owner",
                    "type": "address"
                },
                {
                    "indexed": true,
                    "internalType": "address",
                    "name": "approved",
                    "type": "address"
                },
                {
                    "indexed": true,
                    "internalType": "uint256",
                    "name": "tokenId",
                    "type": "uint256"
                }
            ],
            "name": "Approval",
            "type": "event"
        },
        {
            "anonymous": false,
            "inputs": [
                {
                    "indexed": true,
                    "internalType": "address",
                    "name": "owner",
                    "type": "address"
                },
                {
                    "indexed": true,
                    "internalType": "address",
                    "name": "operator",
                    "type": "address"
                },
                {
                    "indexed": false,
                    "internalType": "bool",
                    "name": "approved",
                    "type": "bool"
                }
            ],
            "name": "ApprovalForAll",
            "type": "event"
        },
        {
            "anonymous": false,
            "inputs": [
                {
                    "indexed": true,
                    "internalType": "address",
                    "name": "from",
                    "type": "address"
                },
                {
                    "indexed": true,
                    "internalType": "address",
                    "name": "to",
                    "type": "address"
                },
                {
                    "indexed": true,
                    "internalType": "uint256",
                    "name": "tokenId",
                    "type": "uint256"
                }
            ],
            "name": "Transfer",
            "type": "event"
        },
        {
            "inputs": [
                {
                    "internalType": "address",
                    "name": "to",
                    "type": "address"
                },
                {
                    "internalType": "uint256",
                    "name": "tokenId",
                    "type": "uint256"
                }
            ],
            "name": "approve",
            "outputs": [],
            "stateMutability": "nonpayable",
            "type": "function"
        },
        {
            "inputs": [
                {
                    "internalType": "address",
                    "name": "owner",
                    "type": "address"
                }
            ],
            "name": "balanceOf",
            "outputs": [
                {
                    "internalType": "uint256",
                    "name": "",
                    "type": "uint256"
                }
            ],
            "stateMutability": "view",
            "type": "function"
        },
        {
            "inputs": [],
            "name": "baseURI",
            "outputs": [
                {
                    "internalType": "string",
                    "name": "",
                    "type": "string"
                }
            ],
            "stateMutability": "view",
            "type": "function"
        },
        {
            "inputs": [],
            "name": "claimAToken",
            "outputs": [],
            "stateMutability": "nonpayable",
            "type": "function"
        },
        {
            "inputs": [
                {
                    "internalType": "uint256",
                    "name": "tokenId",
                    "type": "uint256"
                }
            ],
            "name": "getApproved",
            "outputs": [
                {
                    "internalType": "address",
                    "name": "",
                    "type": "address"
                }
            ],
            "stateMutability": "view",
            "type": "function"
        },
        {
            "inputs": [
                {
                    "internalType": "address",
                    "name": "owner",
                    "type": "address"
                },
                {
                    "internalType": "address",
                    "name": "operator",
                    "type": "address"
                }
            ],
            "name": "isApprovedForAll",
            "outputs": [
                {
                    "internalType": "bool",
                    "name": "",
                    "type": "bool"
                }
            ],
            "stateMutability": "view",
            "type": "function"
        },
        {
            "inputs": [],
            "name": "name",
            "outputs": [
                {
                    "internalType": "string",
                    "name": "",
                    "type": "string"
                }
            ],
            "stateMutability": "view",
            "type": "function"
        },
        {
            "inputs": [
                {
                    "internalType": "uint256",
                    "name": "tokenId",
                    "type": "uint256"
                }
            ],
            "name": "ownerOf",
            "outputs": [
                {
                    "internalType": "address",
                    "name": "",
                    "type": "address"
                }
            ],
            "stateMutability": "view",
            "type": "function"
        },
        {
            "inputs": [
                {
                    "internalType": "address",
                    "name": "from",
                    "type": "address"
                },
                {
                    "internalType": "address",
                    "name": "to",
                    "type": "address"
                },
                {
                    "internalType": "uint256",
                    "name": "tokenId",
                    "type": "uint256"
                }
            ],
            "name": "safeTransferFrom",
            "outputs": [],
            "stateMutability": "nonpayable",
            "type": "function"
        },
        {
            "inputs": [
                {
                    "internalType": "address",
                    "name": "from",
                    "type": "address"
                },
                {
                    "internalType": "address",
                    "name": "to",
                    "type": "address"
                },
                {
                    "internalType": "uint256",
                    "name": "tokenId",
                    "type": "uint256"
                },
                {
                    "internalType": "bytes",
                    "name": "_data",
                    "type": "bytes"
                }
            ],
            "name": "safeTransferFrom",
            "outputs": [],
            "stateMutability": "nonpayable",
            "type": "function"
        },
        {
            "inputs": [
                {
                    "internalType": "address",
                    "name": "operator",
                    "type": "address"
                },
                {
                    "internalType": "bool",
                    "name": "approved",
                    "type": "bool"
                }
            ],
            "name": "setApprovalForAll",
            "outputs": [],
            "stateMutability": "nonpayable",
            "type": "function"
        },
        {
            "inputs": [
                {
                    "internalType": "bytes4",
                    "name": "interfaceId",
                    "type": "bytes4"
                }
            ],
            "name": "supportsInterface",
            "outputs": [
                {
                    "internalType": "bool",
                    "name": "",
                    "type": "bool"
                }
            ],
            "stateMutability": "view",
            "type": "function"
        },
        {
            "inputs": [],
            "name": "symbol",
            "outputs": [
                {
                    "internalType": "string",
                    "name": "",
                    "type": "string"
                }
            ],
            "stateMutability": "view",
            "type": "function"
        },
        {
            "inputs": [
                {
                    "internalType": "uint256",
                    "name": "index",
                    "type": "uint256"
                }
            ],
            "name": "tokenByIndex",
            "outputs": [
                {
                    "internalType": "uint256",
                    "name": "",
                    "type": "uint256"
                }
            ],
            "stateMutability": "view",
            "type": "function"
        },
        {
            "inputs": [],
            "name": "tokenCounter",
            "outputs": [
                {
                    "internalType": "uint256",
                    "name": "",
                    "type": "uint256"
                }
            ],
            "stateMutability": "view",
            "type": "function"
        },
        {
            "inputs": [
                {
                    "internalType": "address",
                    "name": "owner",
                    "type": "address"
                },
                {
                    "internalType": "uint256",
                    "name": "index",
                    "type": "uint256"
                }
            ],
            "name": "tokenOfOwnerByIndex",
            "outputs": [
                {
                    "internalType": "uint256",
                    "name": "",
                    "type": "uint256"
                }
            ],
            "stateMutability": "view",
            "type": "function"
        },
        {
            "inputs": [
                {
                    "internalType": "uint256",
                    "name": "tokenId",
                    "type": "uint256"
                }
            ],
            "name": "tokenURI",
            "outputs": [
                {
                    "internalType": "string",
                    "name": "",
                    "type": "string"
                }
            ],
            "stateMutability": "view",
            "type": "function"
        },
        {
            "inputs": [],
            "name": "totalSupply",
            "outputs": [
                {
                    "internalType": "uint256",
                    "name": "",
                    "type": "uint256"
                }
            ],
            "stateMutability": "view",
            "type": "function"
        },
        {
            "inputs": [
                {
                    "internalType": "address",
                    "name": "from",
                    "type": "address"
                },
                {
                    "internalType": "address",
                    "name": "to",
                    "type": "address"
                },
                {
                    "internalType": "uint256",
                    "name": "tokenId",
                    "type": "uint256"
                }
            ],
            "name": "transferFrom",
            "outputs": [],
            "stateMutability": "nonpayable",
            "type": "function"
        }
    ],
    "bytecode": "0x60806040523480156200001157600080fd5b50604080518082018252601981527f46616b6520426f7265642041706520596163687420436c75620000000000000060208083019190915282518084019093526005835264464241594360d81b90830152906200007e6301ffc9a760e01b6001600160e01b036200014416565b815162000093906006906020850190620004f8565b508051620000a9906007906020840190620004f8565b50620000c56380ac58cd60e01b6001600160e01b036200014416565b620000e0635b5e139f60e01b6001600160e01b036200014416565b620000fb63780e9d6360e01b6001600160e01b036200014416565b506200011190506001600160e01b03620001c916565b6200013e604051806080016040528060518152602001620020e8605191396001600160e01b03620001e816565b6200059d565b6001600160e01b03198082161415620001a4576040805162461bcd60e51b815260206004820152601c60248201527f4552433136353a20696e76616c696420696e7465726661636520696400000000604482015290519081900360640190fd5b6001600160e01b0319166000908152602081905260409020805460ff19166001179055565b620001dd33600a546200020160201b60201c565b600a80546001019055565b8051620001fd906009906020840190620004f8565b5050565b6001600160a01b0382166200025d576040805162461bcd60e51b815260206004820181905260248201527f4552433732313a206d696e7420746f20746865207a65726f2061646472657373604482015290519081900360640190fd5b62000271816001600160e01b036200036716565b15620002c4576040805162461bcd60e51b815260206004820152601c60248201527f4552433732313a20746f6b656e20616c7265616479206d696e74656400000000604482015290519081900360640190fd5b620002db600083836001600160e01b036200038a16565b6001600160a01b03821660009081526001602090815260409091206200030c918390620012426200038f821b17901c565b506200032a81836002620003ad60201b6200124e179092919060201c565b5060405181906001600160a01b038416906000907fddf252ad1be2c89b69c2b068fc378daa952ba7f163c4a11628f55a4df523b3ef908290a45050565b600062000384826002620003d660201b620012261790919060201c565b92915050565b505050565b6000620003a683836001600160e01b03620003ed16565b9392505050565b6000620003ce84846001600160a01b0385166001600160e01b036200044516565b949350505050565b6000620003a683836001600160e01b03620004e016565b60006200040483836001600160e01b03620004e016565b6200043c5750815460018181018455600084815260208082209093018490558454848252828601909352604090209190915562000384565b50600062000384565b600082815260018401602052604081205480620004ac575050604080518082018252838152602080820184815286546001818101895560008981528481209551600290930290950191825591519082015586548684528188019092529290912055620003a6565b82856000016001830381548110620004c057fe5b9060005260206000209060020201600101819055506000915050620003a6565b60009081526001919091016020526040902054151590565b828054600181600116156101000203166002900490600052602060002090601f016020900481019282601f106200053b57805160ff19168380011785556200056b565b828001600101855582156200056b579182015b828111156200056b5782518255916020019190600101906200054e565b50620005799291506200057d565b5090565b6200059a91905b8082111562000579576000815560010162000584565b90565b611b3b80620005ad6000396000f3fe608060405234801561001057600080fd5b50600436106101215760003560e01c80636352211e116100ad578063b88d4fde11610071578063b88d4fde14610395578063ba1bcc341461045b578063c87b56dd14610463578063d082e38114610480578063e985e9c51461048857610121565b80636352211e146103145780636c0360eb1461033157806370a082311461033957806395d89b411461035f578063a22cb4651461036757610121565b806318160ddd116100f457806318160ddd1461024557806323b872dd1461025f5780632f745c591461029557806342842e0e146102c15780634f6ccce7146102f757610121565b806301ffc9a71461012657806306fdde0314610161578063081812fc146101de578063095ea7b314610217575b600080fd5b61014d6004803603602081101561013c57600080fd5b50356001600160e01b0319166104b6565b604080519115158252519081900360200190f35b6101696104d9565b6040805160208082528351818301528351919283929083019185019080838360005b838110156101a357818101518382015260200161018b565b50505050905090810190601f1680156101d05780820380516001836020036101000a031916815260200191505b509250505060405180910390f35b6101fb600480360360208110156101f457600080fd5b503561056f565b604080516001600160a01b039092168252519081900360200190f35b6102436004803603604081101561022d57600080fd5b506001600160a01b0381351690602001356105d1565b005b61024d6106ac565b60408051918252519081900360200190f35b6102436004803603606081101561027557600080fd5b506001600160a01b038135811691602081013590911690604001356106bd565b61024d600480360360408110156102ab57600080fd5b506001600160a01b038135169060200135610714565b610243600480360360608110156102d757600080fd5b506001600160a01b03813581169160208101359091169060400135610745565b61024d6004803603602081101561030d57600080fd5b5035610760565b6101fb6004803603602081101561032a57600080fd5b503561077c565b6101696107aa565b61024d6004803603602081101561034f57600080fd5b50356001600160a01b031661080b565b610169610873565b6102436004803603604081101561037d57600080fd5b506001600160a01b03813516906020013515156108d4565b610243600480360360808110156103ab57600080fd5b6001600160a01b038235811692602081013590911691604082013591908101906080810160608201356401000000008111156103e657600080fd5b8201836020820111156103f857600080fd5b8035906020019184600183028401116401000000008311171561041a57600080fd5b91908080601f0160208091040260200160405190810160405280939291908181526020018383808284376000920191909152509295506109d9945050505050565b610243610a37565b6101696004803603602081101561047957600080fd5b5035610a4e565b61024d610cd1565b61014d6004803603604081101561049e57600080fd5b506001600160a01b0381358116916020013516610cd7565b6001600160e01b0319811660009081526020819052604090205460ff165b919050565b60068054604080516020601f60026000196101006001881615020190951694909404938401819004810282018101909252828152606093909290918301828280156105655780601f1061053a57610100808354040283529160200191610565565b820191906000526020600020905b81548152906001019060200180831161054857829003601f168201915b5050505050905090565b600061057a82610d05565b6105b55760405162461bcd60e51b815260040180806020018281038252602c815260200180611a30602c913960400191505060405180910390fd5b506000908152600460205260409020546001600160a01b031690565b60006105dc8261077c565b9050806001600160a01b0316836001600160a01b0316141561062f5760405162461bcd60e51b8152600401808060200182810382526021815260200180611ab46021913960400191505060405180910390fd5b806001600160a01b0316610641610d18565b6001600160a01b0316148061066257506106628161065d610d18565b610cd7565b61069d5760405162461bcd60e51b81526004018080602001828103825260388152602001806119836038913960400191505060405180910390fd5b6106a78383610d1c565b505050565b60006106b86002610d8a565b905090565b6106ce6106c8610d18565b82610d95565b6107095760405162461bcd60e51b8152600401808060200182810382526031815260200180611ad56031913960400191505060405180910390fd5b6106a7838383610e39565b6001600160a01b038216600090815260016020526040812061073c908363ffffffff610f9716565b90505b92915050565b6106a7838383604051806020016040528060008152506109d9565b60008061077460028463ffffffff610fa316565b509392505050565b600061073f826040518060600160405280602981526020016119e5602991396002919063ffffffff610fbf16565b60098054604080516020601f60026000196101006001881615020190951694909404938401819004810282018101909252828152606093909290918301828280156105655780601f1061053a57610100808354040283529160200191610565565b60006001600160a01b0382166108525760405162461bcd60e51b815260040180806020018281038252602a8152602001806119bb602a913960400191505060405180910390fd5b6001600160a01b038216600090815260016020526040902061073f90610d8a565b60078054604080516020601f60026000196101006001881615020190951694909404938401819004810282018101909252828152606093909290918301828280156105655780601f1061053a57610100808354040283529160200191610565565b6108dc610d18565b6001600160a01b0316826001600160a01b03161415610942576040805162461bcd60e51b815260206004820152601960248201527f4552433732313a20617070726f766520746f2063616c6c657200000000000000604482015290519081900360640190fd5b806005600061094f610d18565b6001600160a01b03908116825260208083019390935260409182016000908120918716808252919093529120805460ff191692151592909217909155610993610d18565b60408051841515815290516001600160a01b0392909216917f17307eab39ab6107e8899845ad3d59bd9653f200f220920489ca2b5937696c319181900360200190a35050565b6109ea6109e4610d18565b83610d95565b610a255760405162461bcd60e51b8152600401808060200182810382526031815260200180611ad56031913960400191505060405180910390fd5b610a3184848484610fd6565b50505050565b610a4333600a54611028565b600a80546001019055565b6060610a5982610d05565b610a945760405162461bcd60e51b815260040180806020018281038252602f815260200180611a85602f913960400191505060405180910390fd5b60008281526008602090815260409182902080548351601f6002600019610100600186161502019093169290920491820184900484028101840190945280845260609392830182828015610b295780601f10610afe57610100808354040283529160200191610b29565b820191906000526020600020905b815481529060010190602001808311610b0c57829003601f168201915b505050505090506060610b3a6107aa565b9050805160001415610b4e575090506104d4565b815115610c0f5780826040516020018083805190602001908083835b60208310610b895780518252601f199092019160209182019101610b6a565b51815160209384036101000a600019018019909216911617905285519190930192850191508083835b60208310610bd15780518252601f199092019160209182019101610bb2565b6001836020036101000a03801982511681845116808217855250505050505090500192505050604051602081830303815290604052925050506104d4565b80610c1985611162565b6040516020018083805190602001908083835b60208310610c4b5780518252601f199092019160209182019101610c2c565b51815160209384036101000a600019018019909216911617905285519190930192850191508083835b60208310610c935780518252601f199092019160209182019101610c74565b6001836020036101000a0380198251168184511680821785525050505050509050019250505060405160208183030381529060405292505050919050565b600a5481565b6001600160a01b03918216600090815260056020908152604080832093909416825291909152205460ff1690565b600061073f60028363ffffffff61122616565b3390565b600081815260046020526040902080546001600160a01b0319166001600160a01b0384169081179091558190610d518261077c565b6001600160a01b03167f8c5be1e5ebec7d5bd14f71427d1e84f3dd0314c0f7b2291e5b200ac8c7c3b92560405160405180910390a45050565b600061073f82611232565b6000610da082610d05565b610ddb5760405162461bcd60e51b815260040180806020018281038252602c815260200180611957602c913960400191505060405180910390fd5b6000610de68361077c565b9050806001600160a01b0316846001600160a01b03161480610e215750836001600160a01b0316610e168461056f565b6001600160a01b0316145b80610e315750610e318185610cd7565b949350505050565b826001600160a01b0316610e4c8261077c565b6001600160a01b031614610e915760405162461bcd60e51b8152600401808060200182810382526029815260200180611a5c6029913960400191505060405180910390fd5b6001600160a01b038216610ed65760405162461bcd60e51b81526004018080602001828103825260248152602001806119336024913960400191505060405180910390fd5b610ee18383836106a7565b610eec600082610d1c565b6001600160a01b0383166000908152600160205260409020610f14908263ffffffff61123616565b506001600160a01b0382166000908152600160205260409020610f3d908263ffffffff61124216565b50610f506002828463ffffffff61124e16565b5080826001600160a01b0316846001600160a01b03167fddf252ad1be2c89b69c2b068fc378daa952ba7f163c4a11628f55a4df523b3ef60405160405180910390a4505050565b600061073c8383611264565b6000808080610fb286866112c8565b9097909650945050505050565b6000610fcc848484611343565b90505b9392505050565b610fe1848484610e39565b610fed8484848461140d565b610a315760405162461bcd60e51b81526004018080602001828103825260328152602001806119016032913960400191505060405180910390fd5b6001600160a01b038216611083576040805162461bcd60e51b815260206004820181905260248201527f4552433732313a206d696e7420746f20746865207a65726f2061646472657373604482015290519081900360640190fd5b61108c81610d05565b156110de576040805162461bcd60e51b815260206004820152601c60248201527f4552433732313a20746f6b656e20616c7265616479206d696e74656400000000604482015290519081900360640190fd5b6110ea600083836106a7565b6001600160a01b0382166000908152600160205260409020611112908263ffffffff61124216565b506111256002828463ffffffff61124e16565b5060405181906001600160a01b038416906000907fddf252ad1be2c89b69c2b068fc378daa952ba7f163c4a11628f55a4df523b3ef908290a45050565b60608161118757506040805180820190915260018152600360fc1b60208201526104d4565b8160005b811561119f57600101600a8204915061118b565b6060816040519080825280601f01601f1916602001820160405280156111cc576020820181803883390190505b50859350905060001982015b831561121d57600a840660300160f81b828280600190039350815181106111fb57fe5b60200101906001600160f81b031916908160001a905350600a840493506111d8565b50949350505050565b600061073c838361158d565b5490565b600061073c83836115a5565b600061073c838361166b565b6000610fcc84846001600160a01b0385166116b5565b815460009082106112a65760405162461bcd60e51b81526004018080602001828103825260228152602001806118df6022913960400191505060405180910390fd5b8260000182815481106112b557fe5b9060005260206000200154905092915050565b81546000908190831061130c5760405162461bcd60e51b8152600401808060200182810382526022815260200180611a0e6022913960400191505060405180910390fd5b600084600001848154811061131d57fe5b906000526020600020906002020190508060000154816001015492509250509250929050565b600082815260018401602052604081205482816113de5760405162461bcd60e51b81526004018080602001828103825283818151815260200191508051906020019080838360005b838110156113a357818101518382015260200161138b565b50505050905090810190601f1680156113d05780820380516001836020036101000a031916815260200191505b509250505060405180910390fd5b508460000160018203815481106113f157fe5b9060005260206000209060020201600101549150509392505050565b6000611421846001600160a01b031661174c565b61142d57506001610e31565b6060611553630a85bd0160e11b611442610d18565b88878760405160240180856001600160a01b03166001600160a01b03168152602001846001600160a01b03166001600160a01b0316815260200183815260200180602001828103825283818151815260200191508051906020019080838360005b838110156114bb5781810151838201526020016114a3565b50505050905090810190601f1680156114e85780820380516001836020036101000a031916815260200191505b5095505050505050604051602081830303815290604052906001600160e01b0319166020820180516001600160e01b038381831617835250505050604051806060016040528060328152602001611901603291396001600160a01b038816919063ffffffff61175216565b9050600081806020019051602081101561156c57600080fd5b50516001600160e01b031916630a85bd0160e11b1492505050949350505050565b60009081526001919091016020526040902054151590565b6000818152600183016020526040812054801561166157835460001980830191908101906000908790839081106115d857fe5b90600052602060002001549050808760000184815481106115f557fe5b60009182526020808320909101929092558281526001898101909252604090209084019055865487908061162557fe5b6001900381819060005260206000200160009055905586600101600087815260200190815260200160002060009055600194505050505061073f565b600091505061073f565b6000611677838361158d565b6116ad5750815460018181018455600084815260208082209093018490558454848252828601909352604090209190915561073f565b50600061073f565b60008281526001840160205260408120548061171a575050604080518082018252838152602080820184815286546001818101895560008981528481209551600290930290950191825591519082015586548684528188019092529290912055610fcf565b8285600001600183038154811061172d57fe5b9060005260206000209060020201600101819055506000915050610fcf565b3b151590565b6060610fcc8484600085856117668561174c565b6117b7576040805162461bcd60e51b815260206004820152601d60248201527f416464726573733a2063616c6c20746f206e6f6e2d636f6e7472616374000000604482015290519081900360640190fd5b60006060866001600160a01b031685876040518082805190602001908083835b602083106117f65780518252601f1990920191602091820191016117d7565b6001836020036101000a03801982511681845116808217855250505050505090500191505060006040518083038185875af1925050503d8060008114611858576040519150601f19603f3d011682016040523d82523d6000602084013e61185d565b606091505b509150915061186d828286611878565b979650505050505050565b60608315611887575081610fcf565b8251156118975782518084602001fd5b60405162461bcd60e51b81526020600482018181528451602484015284518593919283926044019190850190808383600083156113a357818101518382015260200161138b56fe456e756d657261626c655365743a20696e646578206f7574206f6620626f756e64734552433732313a207472616e7366657220746f206e6f6e20455243373231526563656976657220696d706c656d656e7465724552433732313a207472616e7366657220746f20746865207a65726f20616464726573734552433732313a206f70657261746f7220717565727920666f72206e6f6e6578697374656e7420746f6b656e4552433732313a20617070726f76652063616c6c6572206973206e6f74206f776e6572206e6f7220617070726f76656420666f7220616c6c4552433732313a2062616c616e636520717565727920666f7220746865207a65726f20616464726573734552433732313a206f776e657220717565727920666f72206e6f6e6578697374656e7420746f6b656e456e756d657261626c654d61703a20696e646578206f7574206f6620626f756e64734552433732313a20617070726f76656420717565727920666f72206e6f6e6578697374656e7420746f6b656e4552433732313a207472616e73666572206f6620746f6b656e2074686174206973206e6f74206f776e4552433732314d657461646174613a2055524920717565727920666f72206e6f6e6578697374656e7420746f6b656e4552433732313a20617070726f76616c20746f2063757272656e74206f776e65724552433732313a207472616e736665722063616c6c6572206973206e6f74206f776e6572206e6f7220617070726f766564a264697066735822122045b60f061cdb97b96bea86e399f0e08dfad818afb5b3863693e5add72ce57c4a64736f6c6343000602003368747470733a2f2f676174657761792e70696e6174612e636c6f75642f697066732f516d65536a53696e4870506e6d586d73704d6a776958794e367a533445397a63636172694752336a7863615774712f",
    "linkReferences": {},
    "deployedLinkReferences": {}
}