{
    "_format": "hh-sol-artifact-1",
    "contractName": "FakeNefturians",
    "sourceName": "contracts/FakeNefturians.sol",
    "abi": [
        {
            "inputs": [],
            "stateMutability": "nonpayable",
            "type": "constructor"
        },
        {
            "anonymous": false,
            "inputs": [
                {
                    "indexed": true,
                    "internalType": "address",
                    "name": "owner",
                    "type": "address"
                },
                {
                    "indexed": true,
                    "internalType": "address",
                    "name": "approved",
                    "type": "address"
                },
                {
                    "indexed": true,
                    "internalType": "uint256",
                    "name": "tokenId",
                    "type": "uint256"
                }
            ],
            "name": "Approval",
            "type": "event"
        },
        {
            "anonymous": false,
            "inputs": [
                {
                    "indexed": true,
                    "internalType": "address",
                    "name": "owner",
                    "type": "address"
                },
                {
                    "indexed": true,
                    "internalType": "address",
                    "name": "operator",
                    "type": "address"
                },
                {
                    "indexed": false,
                    "internalType": "bool",
                    "name": "approved",
                    "type": "bool"
                }
            ],
            "name": "ApprovalForAll",
            "type": "event"
        },
        {
            "anonymous": false,
            "inputs": [
                {
                    "indexed": true,
                    "internalType": "address",
                    "name": "from",
                    "type": "address"
                },
                {
                    "indexed": true,
                    "internalType": "address",
                    "name": "to",
                    "type": "address"
                },
                {
                    "indexed": true,
                    "internalType": "uint256",
                    "name": "tokenId",
                    "type": "uint256"
                }
            ],
            "name": "Transfer",
            "type": "event"
        },
        {
            "inputs": [
                {
                    "internalType": "address",
                    "name": "to",
                    "type": "address"
                },
                {
                    "internalType": "uint256",
                    "name": "tokenId",
                    "type": "uint256"
                }
            ],
            "name": "approve",
            "outputs": [],
            "stateMutability": "nonpayable",
            "type": "function"
        },
        {
            "inputs": [
                {
                    "internalType": "address",
                    "name": "owner",
                    "type": "address"
                }
            ],
            "name": "balanceOf",
            "outputs": [
                {
                    "internalType": "uint256",
                    "name": "",
                    "type": "uint256"
                }
            ],
            "stateMutability": "view",
            "type": "function"
        },
        {
            "inputs": [],
            "name": "baseURI",
            "outputs": [
                {
                    "internalType": "string",
                    "name": "",
                    "type": "string"
                }
            ],
            "stateMutability": "view",
            "type": "function"
        },
        {
            "inputs": [],
            "name": "buyAToken",
            "outputs": [],
            "stateMutability": "payable",
            "type": "function"
        },
        {
            "inputs": [
                {
                    "internalType": "uint256",
                    "name": "tokenId",
                    "type": "uint256"
                }
            ],
            "name": "getApproved",
            "outputs": [
                {
                    "internalType": "address",
                    "name": "",
                    "type": "address"
                }
            ],
            "stateMutability": "view",
            "type": "function"
        },
        {
            "inputs": [
                {
                    "internalType": "address",
                    "name": "owner",
                    "type": "address"
                },
                {
                    "internalType": "address",
                    "name": "operator",
                    "type": "address"
                }
            ],
            "name": "isApprovedForAll",
            "outputs": [
                {
                    "internalType": "bool",
                    "name": "",
                    "type": "bool"
                }
            ],
            "stateMutability": "view",
            "type": "function"
        },
        {
            "inputs": [],
            "name": "name",
            "outputs": [
                {
                    "internalType": "string",
                    "name": "",
                    "type": "string"
                }
            ],
            "stateMutability": "view",
            "type": "function"
        },
        {
            "inputs": [
                {
                    "internalType": "uint256",
                    "name": "tokenId",
                    "type": "uint256"
                }
            ],
            "name": "ownerOf",
            "outputs": [
                {
                    "internalType": "address",
                    "name": "",
                    "type": "address"
                }
            ],
            "stateMutability": "view",
            "type": "function"
        },
        {
            "inputs": [
                {
                    "internalType": "address",
                    "name": "from",
                    "type": "address"
                },
                {
                    "internalType": "address",
                    "name": "to",
                    "type": "address"
                },
                {
                    "internalType": "uint256",
                    "name": "tokenId",
                    "type": "uint256"
                }
            ],
            "name": "safeTransferFrom",
            "outputs": [],
            "stateMutability": "nonpayable",
            "type": "function"
        },
        {
            "inputs": [
                {
                    "internalType": "address",
                    "name": "from",
                    "type": "address"
                },
                {
                    "internalType": "address",
                    "name": "to",
                    "type": "address"
                },
                {
                    "internalType": "uint256",
                    "name": "tokenId",
                    "type": "uint256"
                },
                {
                    "internalType": "bytes",
                    "name": "_data",
                    "type": "bytes"
                }
            ],
            "name": "safeTransferFrom",
            "outputs": [],
            "stateMutability": "nonpayable",
            "type": "function"
        },
        {
            "inputs": [
                {
                    "internalType": "address",
                    "name": "operator",
                    "type": "address"
                },
                {
                    "internalType": "bool",
                    "name": "approved",
                    "type": "bool"
                }
            ],
            "name": "setApprovalForAll",
            "outputs": [],
            "stateMutability": "nonpayable",
            "type": "function"
        },
        {
            "inputs": [
                {
                    "internalType": "bytes4",
                    "name": "interfaceId",
                    "type": "bytes4"
                }
            ],
            "name": "supportsInterface",
            "outputs": [
                {
                    "internalType": "bool",
                    "name": "",
                    "type": "bool"
                }
            ],
            "stateMutability": "view",
            "type": "function"
        },
        {
            "inputs": [],
            "name": "symbol",
            "outputs": [
                {
                    "internalType": "string",
                    "name": "",
                    "type": "string"
                }
            ],
            "stateMutability": "view",
            "type": "function"
        },
        {
            "inputs": [
                {
                    "internalType": "uint256",
                    "name": "index",
                    "type": "uint256"
                }
            ],
            "name": "tokenByIndex",
            "outputs": [
                {
                    "internalType": "uint256",
                    "name": "",
                    "type": "uint256"
                }
            ],
            "stateMutability": "view",
            "type": "function"
        },
        {
            "inputs": [],
            "name": "tokenCounter",
            "outputs": [
                {
                    "internalType": "uint256",
                    "name": "",
                    "type": "uint256"
                }
            ],
            "stateMutability": "view",
            "type": "function"
        },
        {
            "inputs": [
                {
                    "internalType": "address",
                    "name": "owner",
                    "type": "address"
                },
                {
                    "internalType": "uint256",
                    "name": "index",
                    "type": "uint256"
                }
            ],
            "name": "tokenOfOwnerByIndex",
            "outputs": [
                {
                    "internalType": "uint256",
                    "name": "",
                    "type": "uint256"
                }
            ],
            "stateMutability": "view",
            "type": "function"
        },
        {
            "inputs": [],
            "name": "tokenPrice",
            "outputs": [
                {
                    "internalType": "uint256",
                    "name": "",
                    "type": "uint256"
                }
            ],
            "stateMutability": "view",
            "type": "function"
        },
        {
            "inputs": [
                {
                    "internalType": "uint256",
                    "name": "tokenId",
                    "type": "uint256"
                }
            ],
            "name": "tokenURI",
            "outputs": [
                {
                    "internalType": "string",
                    "name": "",
                    "type": "string"
                }
            ],
            "stateMutability": "view",
            "type": "function"
        },
        {
            "inputs": [],
            "name": "totalSupply",
            "outputs": [
                {
                    "internalType": "uint256",
                    "name": "",
                    "type": "uint256"
                }
            ],
            "stateMutability": "view",
            "type": "function"
        },
        {
            "inputs": [
                {
                    "internalType": "address",
                    "name": "from",
                    "type": "address"
                },
                {
                    "internalType": "address",
                    "name": "to",
                    "type": "address"
                },
                {
                    "internalType": "uint256",
                    "name": "tokenId",
                    "type": "uint256"
                }
            ],
            "name": "transferFrom",
            "outputs": [],
            "stateMutability": "nonpayable",
            "type": "function"
        }
    ],
    "bytecode": "0x608060405267016345785d8a0000600b553480156200001d57600080fd5b50604080518082018252600f81526e46616b65204e656674757269616e7360881b6020808301919091528251808401909352600483526327232a2960e11b90830152906200007b6301ffc9a760e01b6001600160e01b036200014b16565b815162000090906006906020850190620004e0565b508051620000a6906007906020840190620004e0565b50620000c26380ac58cd60e01b6001600160e01b036200014b16565b620000dd635b5e139f60e01b6001600160e01b036200014b16565b620000f863780e9d6360e01b6001600160e01b036200014b16565b50506200010e33600a54620001d060201b60201c565b600a8054600101905560408051606081019091526023808252620001459190620021e160208301396001600160e01b036200033616565b62000585565b6001600160e01b03198082161415620001ab576040805162461bcd60e51b815260206004820152601c60248201527f4552433136353a20696e76616c696420696e7465726661636520696400000000604482015290519081900360640190fd5b6001600160e01b0319166000908152602081905260409020805460ff19166001179055565b6001600160a01b0382166200022c576040805162461bcd60e51b815260206004820181905260248201527f4552433732313a206d696e7420746f20746865207a65726f2061646472657373604482015290519081900360640190fd5b62000240816001600160e01b036200034f16565b1562000293576040805162461bcd60e51b815260206004820152601c60248201527f4552433732313a20746f6b656e20616c7265616479206d696e74656400000000604482015290519081900360640190fd5b620002aa600083836001600160e01b036200037216565b6001600160a01b0382166000908152600160209081526040909120620002db9183906200135362000377821b17901c565b50620002f9818360026200039560201b6200135f179092919060201c565b5060405181906001600160a01b038416906000907fddf252ad1be2c89b69c2b068fc378daa952ba7f163c4a11628f55a4df523b3ef908290a45050565b80516200034b906009906020840190620004e0565b5050565b60006200036c826002620003be60201b620013371790919060201c565b92915050565b505050565b60006200038e83836001600160e01b03620003d516565b9392505050565b6000620003b684846001600160a01b0385166001600160e01b036200042d16565b949350505050565b60006200038e83836001600160e01b03620004c816565b6000620003ec83836001600160e01b03620004c816565b62000424575081546001818101845560008481526020808220909301849055845484825282860190935260409020919091556200036c565b5060006200036c565b600082815260018401602052604081205480620004945750506040805180820182528381526020808201848152865460018181018955600089815284812095516002909302909501918255915190820155865486845281880190925292909120556200038e565b82856000016001830381548110620004a857fe5b90600052602060002090600202016001018190555060009150506200038e565b60009081526001919091016020526040902054151590565b828054600181600116156101000203166002900490600052602060002090601f016020900481019282601f106200052357805160ff191683800117855562000553565b8280016001018555821562000553579182015b828111156200055357825182559160200191906001019062000536565b506200056192915062000565565b5090565b6200058291905b808211156200056157600081556001016200056c565b90565b611c4c80620005956000396000f3fe60806040526004361061011f5760003560e01c80636c0360eb116100a0578063a22cb46511610064578063a22cb4651461042b578063b88d4fde14610466578063c87b56dd14610539578063d082e38114610563578063e985e9c5146105785761011f565b80636c0360eb146103b157806370a08231146103c65780637ff9b596146103f957806383d0bfa51461040e57806395d89b41146104165761011f565b806323b872dd116100e757806323b872dd1461029e5780632f745c59146102e157806342842e0e1461031a5780634f6ccce71461035d5780636352211e146103875761011f565b806301ffc9a71461012457806306fdde031461016c578063081812fc146101f6578063095ea7b31461023c57806318160ddd14610277575b600080fd5b34801561013057600080fd5b506101586004803603602081101561014757600080fd5b50356001600160e01b0319166105b3565b604080519115158252519081900360200190f35b34801561017857600080fd5b506101816105d6565b6040805160208082528351818301528351919283929083019185019080838360005b838110156101bb5781810151838201526020016101a3565b50505050905090810190601f1680156101e85780820380516001836020036101000a031916815260200191505b509250505060405180910390f35b34801561020257600080fd5b506102206004803603602081101561021957600080fd5b503561066c565b604080516001600160a01b039092168252519081900360200190f35b34801561024857600080fd5b506102756004803603604081101561025f57600080fd5b506001600160a01b0381351690602001356106ce565b005b34801561028357600080fd5b5061028c6107a9565b60408051918252519081900360200190f35b3480156102aa57600080fd5b50610275600480360360608110156102c157600080fd5b506001600160a01b038135811691602081013590911690604001356107ba565b3480156102ed57600080fd5b5061028c6004803603604081101561030457600080fd5b506001600160a01b038135169060200135610811565b34801561032657600080fd5b506102756004803603606081101561033d57600080fd5b506001600160a01b03813581169160208101359091169060400135610842565b34801561036957600080fd5b5061028c6004803603602081101561038057600080fd5b503561085d565b34801561039357600080fd5b50610220600480360360208110156103aa57600080fd5b5035610879565b3480156103bd57600080fd5b506101816108a7565b3480156103d257600080fd5b5061028c600480360360208110156103e957600080fd5b50356001600160a01b0316610908565b34801561040557600080fd5b5061028c610970565b610275610976565b34801561042257600080fd5b5061018161099b565b34801561043757600080fd5b506102756004803603604081101561044e57600080fd5b506001600160a01b03813516906020013515156109fc565b34801561047257600080fd5b506102756004803603608081101561048957600080fd5b6001600160a01b038235811692602081013590911691604082013591908101906080810160608201356401000000008111156104c457600080fd5b8201836020820111156104d657600080fd5b803590602001918460018302840111640100000000831117156104f857600080fd5b91908080601f016020809104026020016040519081016040528093929190818152602001838380828437600092019190915250929550610b01945050505050565b34801561054557600080fd5b506101816004803603602081101561055c57600080fd5b5035610b5f565b34801561056f57600080fd5b5061028c610de2565b34801561058457600080fd5b506101586004803603604081101561059b57600080fd5b506001600160a01b0381358116916020013516610de8565b6001600160e01b0319811660009081526020819052604090205460ff165b919050565b60068054604080516020601f60026000196101006001881615020190951694909404938401819004810282018101909252828152606093909290918301828280156106625780601f1061063757610100808354040283529160200191610662565b820191906000526020600020905b81548152906001019060200180831161064557829003601f168201915b5050505050905090565b600061067782610e16565b6106b25760405162461bcd60e51b815260040180806020018281038252602c815260200180611b41602c913960400191505060405180910390fd5b506000908152600460205260409020546001600160a01b031690565b60006106d982610879565b9050806001600160a01b0316836001600160a01b0316141561072c5760405162461bcd60e51b8152600401808060200182810382526021815260200180611bc56021913960400191505060405180910390fd5b806001600160a01b031661073e610e29565b6001600160a01b0316148061075f575061075f8161075a610e29565b610de8565b61079a5760405162461bcd60e51b8152600401808060200182810382526038815260200180611a946038913960400191505060405180910390fd5b6107a48383610e2d565b505050565b60006107b56002610e9b565b905090565b6107cb6107c5610e29565b82610ea6565b6108065760405162461bcd60e51b8152600401808060200182810382526031815260200180611be66031913960400191505060405180910390fd5b6107a4838383610f4a565b6001600160a01b0382166000908152600160205260408120610839908363ffffffff6110a816565b90505b92915050565b6107a483838360405180602001604052806000815250610b01565b60008061087160028463ffffffff6110b416565b509392505050565b600061083c82604051806060016040528060298152602001611af6602991396002919063ffffffff6110d016565b60098054604080516020601f60026000196101006001881615020190951694909404938401819004810282018101909252828152606093909290918301828280156106625780601f1061063757610100808354040283529160200191610662565b60006001600160a01b03821661094f5760405162461bcd60e51b815260040180806020018281038252602a815260200180611acc602a913960400191505060405180910390fd5b6001600160a01b038216600090815260016020526040902061083c90610e9b565b600b5481565b600b54341161098457600080fd5b61099033600a546110e7565b600a80546001019055565b60078054604080516020601f60026000196101006001881615020190951694909404938401819004810282018101909252828152606093909290918301828280156106625780601f1061063757610100808354040283529160200191610662565b610a04610e29565b6001600160a01b0316826001600160a01b03161415610a6a576040805162461bcd60e51b815260206004820152601960248201527f4552433732313a20617070726f766520746f2063616c6c657200000000000000604482015290519081900360640190fd5b8060056000610a77610e29565b6001600160a01b03908116825260208083019390935260409182016000908120918716808252919093529120805460ff191692151592909217909155610abb610e29565b60408051841515815290516001600160a01b0392909216917f17307eab39ab6107e8899845ad3d59bd9653f200f220920489ca2b5937696c319181900360200190a35050565b610b12610b0c610e29565b83610ea6565b610b4d5760405162461bcd60e51b8152600401808060200182810382526031815260200180611be66031913960400191505060405180910390fd5b610b5984848484611221565b50505050565b6060610b6a82610e16565b610ba55760405162461bcd60e51b815260040180806020018281038252602f815260200180611b96602f913960400191505060405180910390fd5b60008281526008602090815260409182902080548351601f6002600019610100600186161502019093169290920491820184900484028101840190945280845260609392830182828015610c3a5780601f10610c0f57610100808354040283529160200191610c3a565b820191906000526020600020905b815481529060010190602001808311610c1d57829003601f168201915b505050505090506060610c4b6108a7565b9050805160001415610c5f575090506105d1565b815115610d205780826040516020018083805190602001908083835b60208310610c9a5780518252601f199092019160209182019101610c7b565b51815160209384036101000a600019018019909216911617905285519190930192850191508083835b60208310610ce25780518252601f199092019160209182019101610cc3565b6001836020036101000a03801982511681845116808217855250505050505090500192505050604051602081830303815290604052925050506105d1565b80610d2a85611273565b6040516020018083805190602001908083835b60208310610d5c5780518252601f199092019160209182019101610d3d565b51815160209384036101000a600019018019909216911617905285519190930192850191508083835b60208310610da45780518252601f199092019160209182019101610d85565b6001836020036101000a0380198251168184511680821785525050505050509050019250505060405160208183030381529060405292505050919050565b600a5481565b6001600160a01b03918216600090815260056020908152604080832093909416825291909152205460ff1690565b600061083c60028363ffffffff61133716565b3390565b600081815260046020526040902080546001600160a01b0319166001600160a01b0384169081179091558190610e6282610879565b6001600160a01b03167f8c5be1e5ebec7d5bd14f71427d1e84f3dd0314c0f7b2291e5b200ac8c7c3b92560405160405180910390a45050565b600061083c82611343565b6000610eb182610e16565b610eec5760405162461bcd60e51b815260040180806020018281038252602c815260200180611a68602c913960400191505060405180910390fd5b6000610ef783610879565b9050806001600160a01b0316846001600160a01b03161480610f325750836001600160a01b0316610f278461066c565b6001600160a01b0316145b80610f425750610f428185610de8565b949350505050565b826001600160a01b0316610f5d82610879565b6001600160a01b031614610fa25760405162461bcd60e51b8152600401808060200182810382526029815260200180611b6d6029913960400191505060405180910390fd5b6001600160a01b038216610fe75760405162461bcd60e51b8152600401808060200182810382526024815260200180611a446024913960400191505060405180910390fd5b610ff28383836107a4565b610ffd600082610e2d565b6001600160a01b0383166000908152600160205260409020611025908263ffffffff61134716565b506001600160a01b038216600090815260016020526040902061104e908263ffffffff61135316565b506110616002828463ffffffff61135f16565b5080826001600160a01b0316846001600160a01b03167fddf252ad1be2c89b69c2b068fc378daa952ba7f163c4a11628f55a4df523b3ef60405160405180910390a4505050565b60006108398383611375565b60008080806110c386866113d9565b9097909650945050505050565b60006110dd848484611454565b90505b9392505050565b6001600160a01b038216611142576040805162461bcd60e51b815260206004820181905260248201527f4552433732313a206d696e7420746f20746865207a65726f2061646472657373604482015290519081900360640190fd5b61114b81610e16565b1561119d576040805162461bcd60e51b815260206004820152601c60248201527f4552433732313a20746f6b656e20616c7265616479206d696e74656400000000604482015290519081900360640190fd5b6111a9600083836107a4565b6001600160a01b03821660009081526001602052604090206111d1908263ffffffff61135316565b506111e46002828463ffffffff61135f16565b5060405181906001600160a01b038416906000907fddf252ad1be2c89b69c2b068fc378daa952ba7f163c4a11628f55a4df523b3ef908290a45050565b61122c848484610f4a565b6112388484848461151e565b610b595760405162461bcd60e51b8152600401808060200182810382526032815260200180611a126032913960400191505060405180910390fd5b60608161129857506040805180820190915260018152600360fc1b60208201526105d1565b8160005b81156112b057600101600a8204915061129c565b6060816040519080825280601f01601f1916602001820160405280156112dd576020820181803883390190505b50859350905060001982015b831561132e57600a840660300160f81b8282806001900393508151811061130c57fe5b60200101906001600160f81b031916908160001a905350600a840493506112e9565b50949350505050565b6000610839838361169e565b5490565b600061083983836116b6565b6000610839838361177c565b60006110dd84846001600160a01b0385166117c6565b815460009082106113b75760405162461bcd60e51b81526004018080602001828103825260228152602001806119f06022913960400191505060405180910390fd5b8260000182815481106113c657fe5b9060005260206000200154905092915050565b81546000908190831061141d5760405162461bcd60e51b8152600401808060200182810382526022815260200180611b1f6022913960400191505060405180910390fd5b600084600001848154811061142e57fe5b906000526020600020906002020190508060000154816001015492509250509250929050565b600082815260018401602052604081205482816114ef5760405162461bcd60e51b81526004018080602001828103825283818151815260200191508051906020019080838360005b838110156114b457818101518382015260200161149c565b50505050905090810190601f1680156114e15780820380516001836020036101000a031916815260200191505b509250505060405180910390fd5b5084600001600182038154811061150257fe5b9060005260206000209060020201600101549150509392505050565b6000611532846001600160a01b031661185d565b61153e57506001610f42565b6060611664630a85bd0160e11b611553610e29565b88878760405160240180856001600160a01b03166001600160a01b03168152602001846001600160a01b03166001600160a01b0316815260200183815260200180602001828103825283818151815260200191508051906020019080838360005b838110156115cc5781810151838201526020016115b4565b50505050905090810190601f1680156115f95780820380516001836020036101000a031916815260200191505b5095505050505050604051602081830303815290604052906001600160e01b0319166020820180516001600160e01b038381831617835250505050604051806060016040528060328152602001611a12603291396001600160a01b038816919063ffffffff61186316565b9050600081806020019051602081101561167d57600080fd5b50516001600160e01b031916630a85bd0160e11b1492505050949350505050565b60009081526001919091016020526040902054151590565b6000818152600183016020526040812054801561177257835460001980830191908101906000908790839081106116e957fe5b906000526020600020015490508087600001848154811061170657fe5b60009182526020808320909101929092558281526001898101909252604090209084019055865487908061173657fe5b6001900381819060005260206000200160009055905586600101600087815260200190815260200160002060009055600194505050505061083c565b600091505061083c565b6000611788838361169e565b6117be5750815460018181018455600084815260208082209093018490558454848252828601909352604090209190915561083c565b50600061083c565b60008281526001840160205260408120548061182b5750506040805180820182528381526020808201848152865460018181018955600089815284812095516002909302909501918255915190820155865486845281880190925292909120556110e0565b8285600001600183038154811061183e57fe5b90600052602060002090600202016001018190555060009150506110e0565b3b151590565b60606110dd8484600085856118778561185d565b6118c8576040805162461bcd60e51b815260206004820152601d60248201527f416464726573733a2063616c6c20746f206e6f6e2d636f6e7472616374000000604482015290519081900360640190fd5b60006060866001600160a01b031685876040518082805190602001908083835b602083106119075780518252601f1990920191602091820191016118e8565b6001836020036101000a03801982511681845116808217855250505050505090500191505060006040518083038185875af1925050503d8060008114611969576040519150601f19603f3d011682016040523d82523d6000602084013e61196e565b606091505b509150915061197e828286611989565b979650505050505050565b606083156119985750816110e0565b8251156119a85782518084602001fd5b60405162461bcd60e51b81526020600482018181528451602484015284518593919283926044019190850190808383600083156114b457818101518382015260200161149c56fe456e756d657261626c655365743a20696e646578206f7574206f6620626f756e64734552433732313a207472616e7366657220746f206e6f6e20455243373231526563656976657220696d706c656d656e7465724552433732313a207472616e7366657220746f20746865207a65726f20616464726573734552433732313a206f70657261746f7220717565727920666f72206e6f6e6578697374656e7420746f6b656e4552433732313a20617070726f76652063616c6c6572206973206e6f74206f776e6572206e6f7220617070726f76656420666f7220616c6c4552433732313a2062616c616e636520717565727920666f7220746865207a65726f20616464726573734552433732313a206f776e657220717565727920666f72206e6f6e6578697374656e7420746f6b656e456e756d657261626c654d61703a20696e646578206f7574206f6620626f756e64734552433732313a20617070726f76656420717565727920666f72206e6f6e6578697374656e7420746f6b656e4552433732313a207472616e73666572206f6620746f6b656e2074686174206973206e6f74206f776e4552433732314d657461646174613a2055524920717565727920666f72206e6f6e6578697374656e7420746f6b656e4552433732313a20617070726f76616c20746f2063757272656e74206f776e65724552433732313a207472616e736665722063616c6c6572206973206e6f74206f776e6572206e6f7220617070726f766564a26469706673582212206d3f22242c5503730c431315c571b6133894647b92447a005523289d05650e2664736f6c6343000602003368747470733a2f2f6170692e6e656674757269616e732e696f2f6d657461646174612f",
    "linkReferences": {},
    "deployedLinkReferences": {}
}