{
    "_format": "hh-sol-artifact-1",
    "contractName": "FakeMeebits",
    "sourceName": "contracts/FakeMeebits.sol",
    "abi": [
        {
            "inputs": [],
            "stateMutability": "nonpayable",
            "type": "constructor"
        },
        {
            "anonymous": false,
            "inputs": [
                {
                    "indexed": true,
                    "internalType": "address",
                    "name": "owner",
                    "type": "address"
                },
                {
                    "indexed": true,
                    "internalType": "address",
                    "name": "approved",
                    "type": "address"
                },
                {
                    "indexed": true,
                    "internalType": "uint256",
                    "name": "tokenId",
                    "type": "uint256"
                }
            ],
            "name": "Approval",
            "type": "event"
        },
        {
            "anonymous": false,
            "inputs": [
                {
                    "indexed": true,
                    "internalType": "address",
                    "name": "owner",
                    "type": "address"
                },
                {
                    "indexed": true,
                    "internalType": "address",
                    "name": "operator",
                    "type": "address"
                },
                {
                    "indexed": false,
                    "internalType": "bool",
                    "name": "approved",
                    "type": "bool"
                }
            ],
            "name": "ApprovalForAll",
            "type": "event"
        },
        {
            "anonymous": false,
            "inputs": [
                {
                    "indexed": true,
                    "internalType": "address",
                    "name": "from",
                    "type": "address"
                },
                {
                    "indexed": true,
                    "internalType": "address",
                    "name": "to",
                    "type": "address"
                },
                {
                    "indexed": true,
                    "internalType": "uint256",
                    "name": "tokenId",
                    "type": "uint256"
                }
            ],
            "name": "Transfer",
            "type": "event"
        },
        {
            "inputs": [
                {
                    "internalType": "address",
                    "name": "to",
                    "type": "address"
                },
                {
                    "internalType": "uint256",
                    "name": "tokenId",
                    "type": "uint256"
                }
            ],
            "name": "approve",
            "outputs": [],
            "stateMutability": "nonpayable",
            "type": "function"
        },
        {
            "inputs": [
                {
                    "internalType": "address",
                    "name": "owner",
                    "type": "address"
                }
            ],
            "name": "balanceOf",
            "outputs": [
                {
                    "internalType": "uint256",
                    "name": "",
                    "type": "uint256"
                }
            ],
            "stateMutability": "view",
            "type": "function"
        },
        {
            "inputs": [],
            "name": "baseURI",
            "outputs": [
                {
                    "internalType": "string",
                    "name": "",
                    "type": "string"
                }
            ],
            "stateMutability": "view",
            "type": "function"
        },
        {
            "inputs": [
                {
                    "internalType": "uint256",
                    "name": "tokenId",
                    "type": "uint256"
                }
            ],
            "name": "getApproved",
            "outputs": [
                {
                    "internalType": "address",
                    "name": "",
                    "type": "address"
                }
            ],
            "stateMutability": "view",
            "type": "function"
        },
        {
            "inputs": [
                {
                    "internalType": "address",
                    "name": "owner",
                    "type": "address"
                },
                {
                    "internalType": "address",
                    "name": "operator",
                    "type": "address"
                }
            ],
            "name": "isApprovedForAll",
            "outputs": [
                {
                    "internalType": "bool",
                    "name": "",
                    "type": "bool"
                }
            ],
            "stateMutability": "view",
            "type": "function"
        },
        {
            "inputs": [
                {
                    "internalType": "address",
                    "name": "newMinter",
                    "type": "address"
                },
                {
                    "internalType": "bool",
                    "name": "permission",
                    "type": "bool"
                }
            ],
            "name": "manageMinter",
            "outputs": [],
            "stateMutability": "nonpayable",
            "type": "function"
        },
        {
            "inputs": [
                {
                    "internalType": "uint256",
                    "name": "_token",
                    "type": "uint256"
                }
            ],
            "name": "mintAToken",
            "outputs": [],
            "stateMutability": "nonpayable",
            "type": "function"
        },
        {
            "inputs": [],
            "name": "name",
            "outputs": [
                {
                    "internalType": "string",
                    "name": "",
                    "type": "string"
                }
            ],
            "stateMutability": "view",
            "type": "function"
        },
        {
            "inputs": [
                {
                    "internalType": "uint256",
                    "name": "tokenId",
                    "type": "uint256"
                }
            ],
            "name": "ownerOf",
            "outputs": [
                {
                    "internalType": "address",
                    "name": "",
                    "type": "address"
                }
            ],
            "stateMutability": "view",
            "type": "function"
        },
        {
            "inputs": [
                {
                    "internalType": "address",
                    "name": "from",
                    "type": "address"
                },
                {
                    "internalType": "address",
                    "name": "to",
                    "type": "address"
                },
                {
                    "internalType": "uint256",
                    "name": "tokenId",
                    "type": "uint256"
                }
            ],
            "name": "safeTransferFrom",
            "outputs": [],
            "stateMutability": "nonpayable",
            "type": "function"
        },
        {
            "inputs": [
                {
                    "internalType": "address",
                    "name": "from",
                    "type": "address"
                },
                {
                    "internalType": "address",
                    "name": "to",
                    "type": "address"
                },
                {
                    "internalType": "uint256",
                    "name": "tokenId",
                    "type": "uint256"
                },
                {
                    "internalType": "bytes",
                    "name": "_data",
                    "type": "bytes"
                }
            ],
            "name": "safeTransferFrom",
            "outputs": [],
            "stateMutability": "nonpayable",
            "type": "function"
        },
        {
            "inputs": [
                {
                    "internalType": "address",
                    "name": "operator",
                    "type": "address"
                },
                {
                    "internalType": "bool",
                    "name": "approved",
                    "type": "bool"
                }
            ],
            "name": "setApprovalForAll",
            "outputs": [],
            "stateMutability": "nonpayable",
            "type": "function"
        },
        {
            "inputs": [
                {
                    "internalType": "bytes4",
                    "name": "interfaceId",
                    "type": "bytes4"
                }
            ],
            "name": "supportsInterface",
            "outputs": [
                {
                    "internalType": "bool",
                    "name": "",
                    "type": "bool"
                }
            ],
            "stateMutability": "view",
            "type": "function"
        },
        {
            "inputs": [],
            "name": "symbol",
            "outputs": [
                {
                    "internalType": "string",
                    "name": "",
                    "type": "string"
                }
            ],
            "stateMutability": "view",
            "type": "function"
        },
        {
            "inputs": [
                {
                    "internalType": "uint256",
                    "name": "index",
                    "type": "uint256"
                }
            ],
            "name": "tokenByIndex",
            "outputs": [
                {
                    "internalType": "uint256",
                    "name": "",
                    "type": "uint256"
                }
            ],
            "stateMutability": "view",
            "type": "function"
        },
        {
            "inputs": [
                {
                    "internalType": "address",
                    "name": "owner",
                    "type": "address"
                },
                {
                    "internalType": "uint256",
                    "name": "index",
                    "type": "uint256"
                }
            ],
            "name": "tokenOfOwnerByIndex",
            "outputs": [
                {
                    "internalType": "uint256",
                    "name": "",
                    "type": "uint256"
                }
            ],
            "stateMutability": "view",
            "type": "function"
        },
        {
            "inputs": [
                {
                    "internalType": "uint256",
                    "name": "tokenId",
                    "type": "uint256"
                }
            ],
            "name": "tokenURI",
            "outputs": [
                {
                    "internalType": "string",
                    "name": "",
                    "type": "string"
                }
            ],
            "stateMutability": "view",
            "type": "function"
        },
        {
            "inputs": [],
            "name": "totalSupply",
            "outputs": [
                {
                    "internalType": "uint256",
                    "name": "",
                    "type": "uint256"
                }
            ],
            "stateMutability": "view",
            "type": "function"
        },
        {
            "inputs": [
                {
                    "internalType": "address",
                    "name": "from",
                    "type": "address"
                },
                {
                    "internalType": "address",
                    "name": "to",
                    "type": "address"
                },
                {
                    "internalType": "uint256",
                    "name": "tokenId",
                    "type": "uint256"
                }
            ],
            "name": "transferFrom",
            "outputs": [],
            "stateMutability": "nonpayable",
            "type": "function"
        },
        {
            "inputs": [
                {
                    "internalType": "address",
                    "name": "",
                    "type": "address"
                }
            ],
            "name": "whitelist",
            "outputs": [
                {
                    "internalType": "bool",
                    "name": "",
                    "type": "bool"
                }
            ],
            "stateMutability": "view",
            "type": "function"
        }
    ],
    "bytecode": "0x60806040523480156200001157600080fd5b50604080518082018252600c81526b46616b65204d65656269747360a01b602080830191909152825180840190935260038352622326a160e91b90830152906200006b6301ffc9a760e01b6001600160e01b036200015016565b815162000080906006906020850190620004e5565b50805162000096906007906020840190620004e5565b50620000b26380ac58cd60e01b6001600160e01b036200015016565b620000cd635b5e139f60e01b6001600160e01b036200015016565b620000e863780e9d6360e01b6001600160e01b036200015016565b506200010190503360016001600160e01b03620001d516565b336000908152600a6020908152604091829020805460ff1916600117905581516060810190925260258083526200014a92916200222d908301396001600160e01b036200033b16565b6200058a565b6001600160e01b03198082161415620001b0576040805162461bcd60e51b815260206004820152601c60248201527f4552433136353a20696e76616c696420696e7465726661636520696400000000604482015290519081900360640190fd5b6001600160e01b0319166000908152602081905260409020805460ff19166001179055565b6001600160a01b03821662000231576040805162461bcd60e51b815260206004820181905260248201527f4552433732313a206d696e7420746f20746865207a65726f2061646472657373604482015290519081900360640190fd5b62000245816001600160e01b036200035416565b1562000298576040805162461bcd60e51b815260206004820152601c60248201527f4552433732313a20746f6b656e20616c7265616479206d696e74656400000000604482015290519081900360640190fd5b620002af600083836001600160e01b036200037716565b6001600160a01b0382166000908152600160209081526040909120620002e09183906200139a6200037c821b17901c565b50620002fe818360026200039a60201b620013a6179092919060201c565b5060405181906001600160a01b038416906000907fddf252ad1be2c89b69c2b068fc378daa952ba7f163c4a11628f55a4df523b3ef908290a45050565b805162000350906009906020840190620004e5565b5050565b600062000371826002620003c360201b6200137e1790919060201c565b92915050565b505050565b60006200039383836001600160e01b03620003da16565b9392505050565b6000620003bb84846001600160a01b0385166001600160e01b036200043216565b949350505050565b60006200039383836001600160e01b03620004cd16565b6000620003f183836001600160e01b03620004cd16565b620004295750815460018181018455600084815260208082209093018490558454848252828601909352604090209190915562000371565b50600062000371565b6000828152600184016020526040812054806200049957505060408051808201825283815260208082018481528654600181810189556000898152848120955160029093029095019182559151908201558654868452818801909252929091205562000393565b82856000016001830381548110620004ad57fe5b906000526020600020906002020160010181905550600091505062000393565b60009081526001919091016020526040902054151590565b828054600181600116156101000203166002900490600052602060002090601f016020900481019282601f106200052857805160ff191683800117855562000558565b8280016001018555821562000558579182015b82811115620005585782518255916020019190600101906200053b565b50620005669291506200056a565b5090565b6200058791905b8082111562000566576000815560010162000571565b90565b611c93806200059a6000396000f3fe608060405234801561001057600080fd5b506004361061012c5760003560e01c80636c0360eb116100ad578063a22cb46511610071578063a22cb465146103c6578063b88d4fde146103f4578063bfcd198a146104ba578063c87b56dd146104d7578063e985e9c5146104f45761012c565b80636c0360eb1461033c57806370a08231146103445780637e7dd60b1461036a57806395d89b41146103985780639b19251a146103a05761012c565b806323b872dd116100f457806323b872dd1461026a5780632f745c59146102a057806342842e0e146102cc5780634f6ccce7146103025780636352211e1461031f5761012c565b806301ffc9a71461013157806306fdde031461016c578063081812fc146101e9578063095ea7b31461022257806318160ddd14610250575b600080fd5b6101586004803603602081101561014757600080fd5b50356001600160e01b031916610522565b604080519115158252519081900360200190f35b610174610545565b6040805160208082528351818301528351919283929083019185019080838360005b838110156101ae578181015183820152602001610196565b50505050905090810190601f1680156101db5780820380516001836020036101000a031916815260200191505b509250505060405180910390f35b610206600480360360208110156101ff57600080fd5b50356105db565b604080516001600160a01b039092168252519081900360200190f35b61024e6004803603604081101561023857600080fd5b506001600160a01b03813516906020013561063d565b005b610258610718565b60408051918252519081900360200190f35b61024e6004803603606081101561028057600080fd5b506001600160a01b03813581169160208101359091169060400135610729565b610258600480360360408110156102b657600080fd5b506001600160a01b038135169060200135610780565b61024e600480360360608110156102e257600080fd5b506001600160a01b038135811691602081013590911690604001356107b1565b6102586004803603602081101561031857600080fd5b50356107cc565b6102066004803603602081101561033557600080fd5b50356107e8565b610174610816565b6102586004803603602081101561035a57600080fd5b50356001600160a01b0316610877565b61024e6004803603604081101561038057600080fd5b506001600160a01b03813516906020013515156108df565b610174610968565b610158600480360360208110156103b657600080fd5b50356001600160a01b03166109c9565b61024e600480360360408110156103dc57600080fd5b506001600160a01b03813516906020013515156109de565b61024e6004803603608081101561040a57600080fd5b6001600160a01b0382358116926020810135909116916040820135919081019060808101606082013564010000000081111561044557600080fd5b82018360208201111561045757600080fd5b8035906020019184600183028401116401000000008311171561047957600080fd5b91908080601f016020809104026020016040519081016040528093929190818152602001838380828437600092019190915250929550610ae3945050505050565b61024e600480360360208110156104d057600080fd5b5035610b41565b610174600480360360208110156104ed57600080fd5b5035610bac565b6101586004803603604081101561050a57600080fd5b506001600160a01b0381358116916020013516610e2f565b6001600160e01b0319811660009081526020819052604090205460ff165b919050565b60068054604080516020601f60026000196101006001881615020190951694909404938401819004810282018101909252828152606093909290918301828280156105d15780601f106105a6576101008083540402835291602001916105d1565b820191906000526020600020905b8154815290600101906020018083116105b457829003601f168201915b5050505050905090565b60006105e682610e5d565b6106215760405162461bcd60e51b815260040180806020018281038252602c815260200180611b88602c913960400191505060405180910390fd5b506000908152600460205260409020546001600160a01b031690565b6000610648826107e8565b9050806001600160a01b0316836001600160a01b0316141561069b5760405162461bcd60e51b8152600401808060200182810382526021815260200180611c0c6021913960400191505060405180910390fd5b806001600160a01b03166106ad610e70565b6001600160a01b031614806106ce57506106ce816106c9610e70565b610e2f565b6107095760405162461bcd60e51b8152600401808060200182810382526038815260200180611adb6038913960400191505060405180910390fd5b6107138383610e74565b505050565b60006107246002610ee2565b905090565b61073a610734610e70565b82610eed565b6107755760405162461bcd60e51b8152600401808060200182810382526031815260200180611c2d6031913960400191505060405180910390fd5b610713838383610f91565b6001600160a01b03821660009081526001602052604081206107a8908363ffffffff6110ef16565b90505b92915050565b61071383838360405180602001604052806000815250610ae3565b6000806107e060028463ffffffff6110fb16565b509392505050565b60006107ab82604051806060016040528060298152602001611b3d602991396002919063ffffffff61111716565b60098054604080516020601f60026000196101006001881615020190951694909404938401819004810282018101909252828152606093909290918301828280156105d15780601f106105a6576101008083540402835291602001916105d1565b60006001600160a01b0382166108be5760405162461bcd60e51b815260040180806020018281038252602a815260200180611b13602a913960400191505060405180910390fd5b6001600160a01b03821660009081526001602052604090206107ab90610ee2565b336000908152600a602052604090205460ff1661093d576040805162461bcd60e51b81526020600482015260176024820152761058d8dbdd5b9d08139bdd0815da1a5d195b1a5cdd1959604a1b604482015290519081900360640190fd5b6001600160a01b03919091166000908152600a60205260409020805460ff1916911515919091179055565b60078054604080516020601f60026000196101006001881615020190951694909404938401819004810282018101909252828152606093909290918301828280156105d15780601f106105a6576101008083540402835291602001916105d1565b600a6020526000908152604090205460ff1681565b6109e6610e70565b6001600160a01b0316826001600160a01b03161415610a4c576040805162461bcd60e51b815260206004820152601960248201527f4552433732313a20617070726f766520746f2063616c6c657200000000000000604482015290519081900360640190fd5b8060056000610a59610e70565b6001600160a01b03908116825260208083019390935260409182016000908120918716808252919093529120805460ff191692151592909217909155610a9d610e70565b60408051841515815290516001600160a01b0392909216917f17307eab39ab6107e8899845ad3d59bd9653f200f220920489ca2b5937696c319181900360200190a35050565b610af4610aee610e70565b83610eed565b610b2f5760405162461bcd60e51b8152600401808060200182810382526031815260200180611c2d6031913960400191505060405180910390fd5b610b3b8484848461112e565b50505050565b336000908152600a602052604090205460ff16610b9f576040805162461bcd60e51b81526020600482015260176024820152761058d8dbdd5b9d08139bdd0815da1a5d195b1a5cdd1959604a1b604482015290519081900360640190fd5b610ba93382611180565b50565b6060610bb782610e5d565b610bf25760405162461bcd60e51b815260040180806020018281038252602f815260200180611bdd602f913960400191505060405180910390fd5b60008281526008602090815260409182902080548351601f6002600019610100600186161502019093169290920491820184900484028101840190945280845260609392830182828015610c875780601f10610c5c57610100808354040283529160200191610c87565b820191906000526020600020905b815481529060010190602001808311610c6a57829003601f168201915b505050505090506060610c98610816565b9050805160001415610cac57509050610540565b815115610d6d5780826040516020018083805190602001908083835b60208310610ce75780518252601f199092019160209182019101610cc8565b51815160209384036101000a600019018019909216911617905285519190930192850191508083835b60208310610d2f5780518252601f199092019160209182019101610d10565b6001836020036101000a0380198251168184511680821785525050505050509050019250505060405160208183030381529060405292505050610540565b80610d77856112ba565b6040516020018083805190602001908083835b60208310610da95780518252601f199092019160209182019101610d8a565b51815160209384036101000a600019018019909216911617905285519190930192850191508083835b60208310610df15780518252601f199092019160209182019101610dd2565b6001836020036101000a0380198251168184511680821785525050505050509050019250505060405160208183030381529060405292505050919050565b6001600160a01b03918216600090815260056020908152604080832093909416825291909152205460ff1690565b60006107ab60028363ffffffff61137e16565b3390565b600081815260046020526040902080546001600160a01b0319166001600160a01b0384169081179091558190610ea9826107e8565b6001600160a01b03167f8c5be1e5ebec7d5bd14f71427d1e84f3dd0314c0f7b2291e5b200ac8c7c3b92560405160405180910390a45050565b60006107ab8261138a565b6000610ef882610e5d565b610f335760405162461bcd60e51b815260040180806020018281038252602c815260200180611aaf602c913960400191505060405180910390fd5b6000610f3e836107e8565b9050806001600160a01b0316846001600160a01b03161480610f795750836001600160a01b0316610f6e846105db565b6001600160a01b0316145b80610f895750610f898185610e2f565b949350505050565b826001600160a01b0316610fa4826107e8565b6001600160a01b031614610fe95760405162461bcd60e51b8152600401808060200182810382526029815260200180611bb46029913960400191505060405180910390fd5b6001600160a01b03821661102e5760405162461bcd60e51b8152600401808060200182810382526024815260200180611a8b6024913960400191505060405180910390fd5b611039838383610713565b611044600082610e74565b6001600160a01b038316600090815260016020526040902061106c908263ffffffff61138e16565b506001600160a01b0382166000908152600160205260409020611095908263ffffffff61139a16565b506110a86002828463ffffffff6113a616565b5080826001600160a01b0316846001600160a01b03167fddf252ad1be2c89b69c2b068fc378daa952ba7f163c4a11628f55a4df523b3ef60405160405180910390a4505050565b60006107a883836113bc565b600080808061110a8686611420565b9097909650945050505050565b600061112484848461149b565b90505b9392505050565b611139848484610f91565b61114584848484611565565b610b3b5760405162461bcd60e51b8152600401808060200182810382526032815260200180611a596032913960400191505060405180910390fd5b6001600160a01b0382166111db576040805162461bcd60e51b815260206004820181905260248201527f4552433732313a206d696e7420746f20746865207a65726f2061646472657373604482015290519081900360640190fd5b6111e481610e5d565b15611236576040805162461bcd60e51b815260206004820152601c60248201527f4552433732313a20746f6b656e20616c7265616479206d696e74656400000000604482015290519081900360640190fd5b61124260008383610713565b6001600160a01b038216600090815260016020526040902061126a908263ffffffff61139a16565b5061127d6002828463ffffffff6113a616565b5060405181906001600160a01b038416906000907fddf252ad1be2c89b69c2b068fc378daa952ba7f163c4a11628f55a4df523b3ef908290a45050565b6060816112df57506040805180820190915260018152600360fc1b6020820152610540565b8160005b81156112f757600101600a820491506112e3565b6060816040519080825280601f01601f191660200182016040528015611324576020820181803883390190505b50859350905060001982015b831561137557600a840660300160f81b8282806001900393508151811061135357fe5b60200101906001600160f81b031916908160001a905350600a84049350611330565b50949350505050565b60006107a883836116e5565b5490565b60006107a883836116fd565b60006107a883836117c3565b600061112484846001600160a01b03851661180d565b815460009082106113fe5760405162461bcd60e51b8152600401808060200182810382526022815260200180611a376022913960400191505060405180910390fd5b82600001828154811061140d57fe5b9060005260206000200154905092915050565b8154600090819083106114645760405162461bcd60e51b8152600401808060200182810382526022815260200180611b666022913960400191505060405180910390fd5b600084600001848154811061147557fe5b906000526020600020906002020190508060000154816001015492509250509250929050565b600082815260018401602052604081205482816115365760405162461bcd60e51b81526004018080602001828103825283818151815260200191508051906020019080838360005b838110156114fb5781810151838201526020016114e3565b50505050905090810190601f1680156115285780820380516001836020036101000a031916815260200191505b509250505060405180910390fd5b5084600001600182038154811061154957fe5b9060005260206000209060020201600101549150509392505050565b6000611579846001600160a01b03166118a4565b61158557506001610f89565b60606116ab630a85bd0160e11b61159a610e70565b88878760405160240180856001600160a01b03166001600160a01b03168152602001846001600160a01b03166001600160a01b0316815260200183815260200180602001828103825283818151815260200191508051906020019080838360005b838110156116135781810151838201526020016115fb565b50505050905090810190601f1680156116405780820380516001836020036101000a031916815260200191505b5095505050505050604051602081830303815290604052906001600160e01b0319166020820180516001600160e01b038381831617835250505050604051806060016040528060328152602001611a59603291396001600160a01b038816919063ffffffff6118aa16565b905060008180602001905160208110156116c457600080fd5b50516001600160e01b031916630a85bd0160e11b1492505050949350505050565b60009081526001919091016020526040902054151590565b600081815260018301602052604081205480156117b9578354600019808301919081019060009087908390811061173057fe5b906000526020600020015490508087600001848154811061174d57fe5b60009182526020808320909101929092558281526001898101909252604090209084019055865487908061177d57fe5b600190038181906000526020600020016000905590558660010160008781526020019081526020016000206000905560019450505050506107ab565b60009150506107ab565b60006117cf83836116e5565b611805575081546001818101845560008481526020808220909301849055845484825282860190935260409020919091556107ab565b5060006107ab565b600082815260018401602052604081205480611872575050604080518082018252838152602080820184815286546001818101895560008981528481209551600290930290950191825591519082015586548684528188019092529290912055611127565b8285600001600183038154811061188557fe5b9060005260206000209060020201600101819055506000915050611127565b3b151590565b60606111248484600085856118be856118a4565b61190f576040805162461bcd60e51b815260206004820152601d60248201527f416464726573733a2063616c6c20746f206e6f6e2d636f6e7472616374000000604482015290519081900360640190fd5b60006060866001600160a01b031685876040518082805190602001908083835b6020831061194e5780518252601f19909201916020918201910161192f565b6001836020036101000a03801982511681845116808217855250505050505090500191505060006040518083038185875af1925050503d80600081146119b0576040519150601f19603f3d011682016040523d82523d6000602084013e6119b5565b606091505b50915091506119c58282866119d0565b979650505050505050565b606083156119df575081611127565b8251156119ef5782518084602001fd5b60405162461bcd60e51b81526020600482018181528451602484015284518593919283926044019190850190808383600083156114fb5781810151838201526020016114e356fe456e756d657261626c655365743a20696e646578206f7574206f6620626f756e64734552433732313a207472616e7366657220746f206e6f6e20455243373231526563656976657220696d706c656d656e7465724552433732313a207472616e7366657220746f20746865207a65726f20616464726573734552433732313a206f70657261746f7220717565727920666f72206e6f6e6578697374656e7420746f6b656e4552433732313a20617070726f76652063616c6c6572206973206e6f74206f776e6572206e6f7220617070726f76656420666f7220616c6c4552433732313a2062616c616e636520717565727920666f7220746865207a65726f20616464726573734552433732313a206f776e657220717565727920666f72206e6f6e6578697374656e7420746f6b656e456e756d657261626c654d61703a20696e646578206f7574206f6620626f756e64734552433732313a20617070726f76656420717565727920666f72206e6f6e6578697374656e7420746f6b656e4552433732313a207472616e73666572206f6620746f6b656e2074686174206973206e6f74206f776e4552433732314d657461646174613a2055524920717565727920666f72206e6f6e6578697374656e7420746f6b656e4552433732313a20617070726f76616c20746f2063757272656e74206f776e65724552433732313a207472616e736665722063616c6c6572206973206e6f74206f776e6572206e6f7220617070726f766564a264697066735822122061e39a64747485f4d0dc722ebe50234158daed51189c937fd99aad36a2bcdeed64736f6c6343000602003368747470733a2f2f6d6565626974732e6c617276616c6162732e636f6d2f6d65656269742f",
    "linkReferences": {},
    "deployedLinkReferences": {}
}